{
  "contractName": "InstrumentEscrow",
  "abi": [
    {
      "anonymous": false,
      "inputs": [
        {
          "indexed": false,
          "internalType": "address",
          "name": "account",
          "type": "address"
        },
        {
          "indexed": false,
          "internalType": "address",
          "name": "token",
          "type": "address"
        },
        {
          "indexed": false,
          "internalType": "uint256",
          "name": "amount",
          "type": "uint256"
        }
      ],
      "name": "BalanceDecreased",
      "type": "event"
    },
    {
      "anonymous": false,
      "inputs": [
        {
          "indexed": false,
          "internalType": "address",
          "name": "account",
          "type": "address"
        },
        {
          "indexed": false,
          "internalType": "address",
          "name": "token",
          "type": "address"
        },
        {
          "indexed": false,
          "internalType": "uint256",
          "name": "amount",
          "type": "uint256"
        }
      ],
      "name": "BalanceIncreased",
      "type": "event"
    },
    {
      "anonymous": false,
      "inputs": [
        {
          "indexed": true,
          "internalType": "address",
          "name": "depositer",
          "type": "address"
        },
        {
          "indexed": false,
          "internalType": "uint256",
          "name": "amount",
          "type": "uint256"
        }
      ],
      "name": "Deposited",
      "type": "event"
    },
    {
      "anonymous": false,
      "inputs": [
        {
          "indexed": true,
          "internalType": "bytes32",
          "name": "role",
          "type": "bytes32"
        },
        {
          "indexed": true,
          "internalType": "address",
          "name": "account",
          "type": "address"
        },
        {
          "indexed": true,
          "internalType": "address",
          "name": "sender",
          "type": "address"
        }
      ],
      "name": "RoleGranted",
      "type": "event"
    },
    {
      "anonymous": false,
      "inputs": [
        {
          "indexed": true,
          "internalType": "bytes32",
          "name": "role",
          "type": "bytes32"
        },
        {
          "indexed": true,
          "internalType": "address",
          "name": "account",
          "type": "address"
        },
        {
          "indexed": true,
          "internalType": "address",
          "name": "sender",
          "type": "address"
        }
      ],
      "name": "RoleRevoked",
      "type": "event"
    },
    {
      "anonymous": false,
      "inputs": [
        {
          "indexed": true,
          "internalType": "address",
          "name": "depositer",
          "type": "address"
        },
        {
          "indexed": true,
          "internalType": "address",
          "name": "token",
          "type": "address"
        },
        {
          "indexed": false,
          "internalType": "uint256",
          "name": "amount",
          "type": "uint256"
        }
      ],
      "name": "TokenDeposited",
      "type": "event"
    },
    {
      "anonymous": false,
      "inputs": [
        {
          "indexed": true,
          "internalType": "address",
          "name": "withdrawer",
          "type": "address"
        },
        {
          "indexed": true,
          "internalType": "address",
          "name": "token",
          "type": "address"
        },
        {
          "indexed": false,
          "internalType": "uint256",
          "name": "amount",
          "type": "uint256"
        }
      ],
      "name": "TokenWithdrawn",
      "type": "event"
    },
    {
      "anonymous": false,
      "inputs": [
        {
          "indexed": true,
          "internalType": "address",
          "name": "withdrawer",
          "type": "address"
        },
        {
          "indexed": false,
          "internalType": "uint256",
          "name": "amount",
          "type": "uint256"
        }
      ],
      "name": "Withdrawn",
      "type": "event"
    },
    {
      "inputs": [],
      "name": "ADMIN_ROLE",
      "outputs": [
        {
          "internalType": "bytes32",
          "name": "",
          "type": "bytes32"
        }
      ],
      "stateMutability": "view",
      "type": "function"
    },
    {
      "inputs": [],
      "name": "DEFAULT_ADMIN_ROLE",
      "outputs": [
        {
          "internalType": "bytes32",
          "name": "",
          "type": "bytes32"
        }
      ],
      "stateMutability": "view",
      "type": "function"
    },
    {
      "inputs": [],
      "name": "OWNER_ROLE",
      "outputs": [
        {
          "internalType": "bytes32",
          "name": "",
          "type": "bytes32"
        }
      ],
      "stateMutability": "view",
      "type": "function"
    },
    {
      "inputs": [
        {
          "internalType": "address",
          "name": "account",
          "type": "address"
        }
      ],
      "name": "depositByAdmin",
      "outputs": [],
      "stateMutability": "payable",
      "type": "function"
    },
    {
      "inputs": [
        {
          "internalType": "address",
          "name": "account",
          "type": "address"
        },
        {
          "internalType": "address",
          "name": "token",
          "type": "address"
        },
        {
          "internalType": "uint256",
          "name": "amount",
          "type": "uint256"
        }
      ],
      "name": "depositTokenByAdmin",
      "outputs": [],
      "stateMutability": "nonpayable",
      "type": "function"
    },
    {
      "inputs": [
        {
          "internalType": "address",
          "name": "account",
          "type": "address"
        }
      ],
      "name": "getBalance",
      "outputs": [
        {
          "internalType": "uint256",
          "name": "",
          "type": "uint256"
        }
      ],
      "stateMutability": "view",
      "type": "function"
    },
    {
      "inputs": [
        {
          "internalType": "bytes32",
          "name": "role",
          "type": "bytes32"
        }
      ],
      "name": "getRoleAdmin",
      "outputs": [
        {
          "internalType": "bytes32",
          "name": "",
          "type": "bytes32"
        }
      ],
      "stateMutability": "view",
      "type": "function"
    },
    {
      "inputs": [
        {
          "internalType": "bytes32",
          "name": "role",
          "type": "bytes32"
        },
        {
          "internalType": "uint256",
          "name": "index",
          "type": "uint256"
        }
      ],
      "name": "getRoleMember",
      "outputs": [
        {
          "internalType": "address",
          "name": "",
          "type": "address"
        }
      ],
      "stateMutability": "view",
      "type": "function"
    },
    {
      "inputs": [
        {
          "internalType": "bytes32",
          "name": "role",
          "type": "bytes32"
        }
      ],
      "name": "getRoleMemberCount",
      "outputs": [
        {
          "internalType": "uint256",
          "name": "",
          "type": "uint256"
        }
      ],
      "stateMutability": "view",
      "type": "function"
    },
    {
      "inputs": [
        {
          "internalType": "address",
          "name": "account",
          "type": "address"
        },
        {
          "internalType": "address",
          "name": "token",
          "type": "address"
        }
      ],
      "name": "getTokenBalance",
      "outputs": [
        {
          "internalType": "uint256",
          "name": "",
          "type": "uint256"
        }
      ],
      "stateMutability": "view",
      "type": "function"
    },
    {
      "inputs": [
        {
          "internalType": "bytes32",
          "name": "role",
          "type": "bytes32"
        },
        {
          "internalType": "address",
          "name": "account",
          "type": "address"
        }
      ],
      "name": "grantRole",
      "outputs": [],
      "stateMutability": "nonpayable",
      "type": "function"
    },
    {
      "inputs": [
        {
          "internalType": "bytes32",
          "name": "role",
          "type": "bytes32"
        },
        {
          "internalType": "address",
          "name": "account",
          "type": "address"
        }
      ],
      "name": "hasRole",
      "outputs": [
        {
          "internalType": "bool",
          "name": "",
          "type": "bool"
        }
      ],
      "stateMutability": "view",
      "type": "function"
    },
    {
      "inputs": [
        {
          "internalType": "bytes32",
          "name": "role",
          "type": "bytes32"
        },
        {
          "internalType": "address",
          "name": "account",
          "type": "address"
        }
      ],
      "name": "renounceRole",
      "outputs": [],
      "stateMutability": "nonpayable",
      "type": "function"
    },
    {
      "inputs": [
        {
          "internalType": "bytes32",
          "name": "role",
          "type": "bytes32"
        },
        {
          "internalType": "address",
          "name": "account",
          "type": "address"
        }
      ],
      "name": "revokeRole",
      "outputs": [],
      "stateMutability": "nonpayable",
      "type": "function"
    },
    {
      "inputs": [
        {
          "internalType": "address",
          "name": "source",
          "type": "address"
        },
        {
          "internalType": "address",
          "name": "dest",
          "type": "address"
        },
        {
          "internalType": "uint256",
          "name": "amount",
          "type": "uint256"
        }
      ],
      "name": "transferByAdmin",
      "outputs": [],
      "stateMutability": "nonpayable",
      "type": "function"
    },
    {
      "inputs": [
        {
          "internalType": "address",
          "name": "source",
          "type": "address"
        },
        {
          "internalType": "address",
          "name": "dest",
          "type": "address"
        },
        {
          "internalType": "address",
          "name": "token",
          "type": "address"
        },
        {
          "internalType": "uint256",
          "name": "amount",
          "type": "uint256"
        }
      ],
      "name": "transferTokenByAdmin",
      "outputs": [],
      "stateMutability": "nonpayable",
      "type": "function"
    },
    {
      "inputs": [
        {
          "internalType": "address",
          "name": "account",
          "type": "address"
        },
        {
          "internalType": "uint256",
          "name": "amount",
          "type": "uint256"
        }
      ],
      "name": "withdrawByAdmin",
      "outputs": [],
      "stateMutability": "nonpayable",
      "type": "function"
    },
    {
      "inputs": [
        {
          "internalType": "address",
          "name": "account",
          "type": "address"
        },
        {
          "internalType": "address",
          "name": "token",
          "type": "address"
        },
        {
          "internalType": "uint256",
          "name": "amount",
          "type": "uint256"
        }
      ],
      "name": "withdrawTokenByAdmin",
      "outputs": [],
      "stateMutability": "nonpayable",
      "type": "function"
    },
    {
      "inputs": [],
      "name": "deposit",
      "outputs": [],
      "stateMutability": "payable",
      "type": "function"
    },
    {
      "inputs": [
        {
          "internalType": "uint256",
          "name": "amount",
          "type": "uint256"
        }
      ],
      "name": "withdraw",
      "outputs": [],
      "stateMutability": "nonpayable",
      "type": "function"
    },
    {
      "inputs": [
        {
          "internalType": "address",
          "name": "token",
          "type": "address"
        },
        {
          "internalType": "uint256",
          "name": "amount",
          "type": "uint256"
        }
      ],
      "name": "depositToken",
      "outputs": [],
      "stateMutability": "nonpayable",
      "type": "function"
    },
    {
      "inputs": [
        {
          "internalType": "address",
          "name": "token",
          "type": "address"
        },
        {
          "internalType": "uint256",
          "name": "amount",
          "type": "uint256"
        }
      ],
      "name": "withdrawToken",
      "outputs": [],
      "stateMutability": "nonpayable",
      "type": "function"
    }
  ],
  "bytecode": "0x60806040523480156200001157600080fd5b506200005960405180807f4f574e45525f524f4c4500000000000000000000000000000000000000000000815250600a019050604051809103902033620000db60201b60201c565b620000d560405180807f41444d494e5f524f4c4500000000000000000000000000000000000000000000815250600a019050604051809103902060405180807f4f574e45525f524f4c4500000000000000000000000000000000000000000000815250600a0190506040518091039020620000f160201b60201c565b6200028f565b620000ed82826200010f60201b60201c565b5050565b80600080848152602001908152602001600020600201819055505050565b6200013d81600080858152602001908152602001600020600001620001b260201b62001d591790919060201c565b15620001ae5762000153620001ea60201b60201c565b73ffffffffffffffffffffffffffffffffffffffff168173ffffffffffffffffffffffffffffffffffffffff16837f2f8788117e7eff1d82e926ec794901d17c78024a50270940304540a733656f0d60405160405180910390a45b5050565b6000620001e2836000018373ffffffffffffffffffffffffffffffffffffffff1660001b620001f260201b60201c565b905092915050565b600033905090565b60006200020683836200026c60201b60201c565b6200026157826000018290806001815401808255809150506001900390600052602060002001600090919091909150558260000180549050836001016000848152602001908152602001600020819055506001905062000266565b600090505b92915050565b600080836001016000848152602001908152602001600020541415905092915050565b612c31806200029f6000396000f3fe6080604052600436106101355760003560e01c80638eb17dfe116100ab578063c489744b1161006f578063c489744b14610729578063ca15c873146107ae578063d0e30db0146107fd578063d547741f14610807578063e58378bb14610862578063f8b2cb4f1461088d57610135565b80638eb17dfe146105305780639010d07c146105ab57806391d14854146106305780639e281a98146106a3578063a217fddf146106fe57610135565b806336568abe116100fd57806336568abe146103155780633d4aa9a914610370578063487c3580146103eb57806370d97c341461044657806375b238fc1461048a578063810c0af8146104b557610135565b8063233c33591461013a578063248a9ca3146101d55780632e1a7d4d146102245780632f2ff15d1461025f578063338b5dea146102ba575b600080fd5b34801561014657600080fd5b506101d36004803603608081101561015d57600080fd5b81019080803573ffffffffffffffffffffffffffffffffffffffff169060200190929190803573ffffffffffffffffffffffffffffffffffffffff169060200190929190803573ffffffffffffffffffffffffffffffffffffffff169060200190929190803590602001909291905050506108f2565b005b3480156101e157600080fd5b5061020e600480360360208110156101f857600080fd5b8101908080359060200190929190505050610a05565b6040518082815260200191505060405180910390f35b34801561023057600080fd5b5061025d6004803603602081101561024757600080fd5b8101908080359060200190929190505050610a24565b005b34801561026b57600080fd5b506102b86004803603604081101561028257600080fd5b8101908080359060200190929190803573ffffffffffffffffffffffffffffffffffffffff169060200190929190505050610b35565b005b3480156102c657600080fd5b50610313600480360360408110156102dd57600080fd5b81019080803573ffffffffffffffffffffffffffffffffffffffff16906020019092919080359060200190929190505050610bbe565b005b34801561032157600080fd5b5061036e6004803603604081101561033857600080fd5b8101908080359060200190929190803573ffffffffffffffffffffffffffffffffffffffff169060200190929190505050610c65565b005b34801561037c57600080fd5b506103e96004803603606081101561039357600080fd5b81019080803573ffffffffffffffffffffffffffffffffffffffff169060200190929190803573ffffffffffffffffffffffffffffffffffffffff16906020019092919080359060200190929190505050610cfe565b005b3480156103f757600080fd5b506104446004803603604081101561040e57600080fd5b81019080803573ffffffffffffffffffffffffffffffffffffffff1690602001909291908035906020019092919050505061104e565b005b6104886004803603602081101561045c57600080fd5b81019080803573ffffffffffffffffffffffffffffffffffffffff16906020019092919050505061131c565b005b34801561049657600080fd5b5061049f611547565b6040518082815260200191505060405180910390f35b3480156104c157600080fd5b5061052e600480360360608110156104d857600080fd5b81019080803573ffffffffffffffffffffffffffffffffffffffff169060200190929190803573ffffffffffffffffffffffffffffffffffffffff16906020019092919080359060200190929190505050611580565b005b34801561053c57600080fd5b506105a96004803603606081101561055357600080fd5b81019080803573ffffffffffffffffffffffffffffffffffffffff169060200190929190803573ffffffffffffffffffffffffffffffffffffffff16906020019092919080359060200190929190505050611870565b005b3480156105b757600080fd5b506105ee600480360360408110156105ce57600080fd5b81019080803590602001909291908035906020019092919050505061197f565b604051808273ffffffffffffffffffffffffffffffffffffffff1673ffffffffffffffffffffffffffffffffffffffff16815260200191505060405180910390f35b34801561063c57600080fd5b506106896004803603604081101561065357600080fd5b8101908080359060200190929190803573ffffffffffffffffffffffffffffffffffffffff1690602001909291905050506119b0565b604051808215151515815260200191505060405180910390f35b3480156106af57600080fd5b506106fc600480360360408110156106c657600080fd5b81019080803573ffffffffffffffffffffffffffffffffffffffff169060200190929190803590602001909291905050506119e1565b005b34801561070a57600080fd5b50610713611ae8565b6040518082815260200191505060405180910390f35b34801561073557600080fd5b506107986004803603604081101561074c57600080fd5b81019080803573ffffffffffffffffffffffffffffffffffffffff169060200190929190803573ffffffffffffffffffffffffffffffffffffffff169060200190929190505050611aef565b6040518082815260200191505060405180910390f35b3480156107ba57600080fd5b506107e7600480360360208110156107d157600080fd5b8101908080359060200190929190505050611b76565b6040518082815260200191505060405180910390f35b610805611b9c565b005b34801561081357600080fd5b506108606004803603604081101561082a57600080fd5b8101908080359060200190929190803573ffffffffffffffffffffffffffffffffffffffff169060200190929190505050611c0a565b005b34801561086e57600080fd5b50610877611c93565b6040518082815260200191505060405180910390f35b34801561089957600080fd5b506108dc600480360360208110156108b057600080fd5b81019080803573ffffffffffffffffffffffffffffffffffffffff169060200190929190505050611ccc565b6040518082815260200191505060405180910390f35b61093160405180807f4f574e45525f524f4c4500000000000000000000000000000000000000000000815250600a0190506040518091039020336119b0565b80610977575061097660405180807f41444d494e5f524f4c4500000000000000000000000000000000000000000000815250600a0190506040518091039020336119b0565b5b6109e9576040517f08c379a00000000000000000000000000000000000000000000000000000000081526004018080602001828103825260168152602001807f43616c6c6572206973206e6f7420616e2061646d696e0000000000000000000081525060200191505060405180910390fd5b6109f4848383611d89565b6109ff838383611f3c565b50505050565b6000806000838152602001908152602001600020600201549050919050565b600033905081610a3382611ccc565b1015610a8a576040517f08c379a0000000000000000000000000000000000000000000000000000000008152600401808060200182810382526027815260200180612ad36027913960400191505060405180910390fd5b610a9c81610a966120ef565b84611d89565b8073ffffffffffffffffffffffffffffffffffffffff166108fc839081150290604051600060405180830381858888f19350505050158015610ae2573d6000803e3d6000fd5b508073ffffffffffffffffffffffffffffffffffffffff167f7084f5476618d8e60b11ef0d7d3f06914655adb8793e28ff7f018d4c76d505d5836040518082815260200191505060405180910390a25050565b610b5b60008084815260200190815260200160002060020154610b56612117565b6119b0565b610bb0576040517f08c379a000000000000000000000000000000000000000000000000000000000815260040180806020018281038252602f815260200180612afa602f913960400191505060405180910390fd5b610bba828261211f565b5050565b6000339050610bce818484611f3c565b610bfb8130848673ffffffffffffffffffffffffffffffffffffffff166121b2909392919063ffffffff16565b8273ffffffffffffffffffffffffffffffffffffffff168173ffffffffffffffffffffffffffffffffffffffff167ff1444b5cad7ce70cb018d1b8edc8618fe303f3c7f034d8d572a6e27facbf2bef846040518082815260200191505060405180910390a3505050565b610c6d612117565b73ffffffffffffffffffffffffffffffffffffffff168173ffffffffffffffffffffffffffffffffffffffff1614610cf0576040517f08c379a000000000000000000000000000000000000000000000000000000000815260040180806020018281038252602f815260200180612bcd602f913960400191505060405180910390fd5b610cfa828261229f565b5050565b610d3d60405180807f4f574e45525f524f4c4500000000000000000000000000000000000000000000815250600a0190506040518091039020336119b0565b80610d835750610d8260405180807f41444d494e5f524f4c4500000000000000000000000000000000000000000000815250600a0190506040518091039020336119b0565b5b610df5576040517f08c379a00000000000000000000000000000000000000000000000000000000081526004018080602001828103825260168152602001807f43616c6c6572206973206e6f7420616e2061646d696e0000000000000000000081525060200191505060405180910390fd5b600073ffffffffffffffffffffffffffffffffffffffff168373ffffffffffffffffffffffffffffffffffffffff161415610e98576040517f08c379a000000000000000000000000000000000000000000000000000000000815260040180806020018281038252601b8152602001807f457363726f77426173653a204163636f756e74206e6f7420736574000000000081525060200191505060405180910390fd5b600073ffffffffffffffffffffffffffffffffffffffff168273ffffffffffffffffffffffffffffffffffffffff161415610f3b576040517f08c379a00000000000000000000000000000000000000000000000000000000081526004018080602001828103825260198152602001807f457363726f77426173653a20546f6b656e206e6f74207365740000000000000081525060200191505060405180910390fd5b60008111610fb1576040517f08c379a000000000000000000000000000000000000000000000000000000000815260040180806020018281038252601a8152602001807f457363726f77426173653a20416d6f756e74206e6f742073657400000000000081525060200191505060405180910390fd5b80610fbc8484611aef565b1015611013576040517f08c379a0000000000000000000000000000000000000000000000000000000008152600401808060200182810382526026815260200180612b7d6026913960400191505060405180910390fd5b61101e838383611d89565b61104933828473ffffffffffffffffffffffffffffffffffffffff166123329092919063ffffffff16565b505050565b61108d60405180807f4f574e45525f524f4c4500000000000000000000000000000000000000000000815250600a0190506040518091039020336119b0565b806110d357506110d260405180807f41444d494e5f524f4c4500000000000000000000000000000000000000000000815250600a0190506040518091039020336119b0565b5b611145576040517f08c379a00000000000000000000000000000000000000000000000000000000081526004018080602001828103825260168152602001807f43616c6c6572206973206e6f7420616e2061646d696e0000000000000000000081525060200191505060405180910390fd5b600073ffffffffffffffffffffffffffffffffffffffff168273ffffffffffffffffffffffffffffffffffffffff1614156111e8576040517f08c379a000000000000000000000000000000000000000000000000000000000815260040180806020018281038252601b8152602001807f457363726f77426173653a204163636f756e74206e6f7420736574000000000081525060200191505060405180910390fd5b6000811161125e576040517f08c379a000000000000000000000000000000000000000000000000000000000815260040180806020018281038252601a8152602001807f457363726f77426173653a20416d6f756e74206e6f742073657400000000000081525060200191505060405180910390fd5b8061126883611ccc565b10156112bf576040517f08c379a0000000000000000000000000000000000000000000000000000000008152600401808060200182810382526024815260200180612b296024913960400191505060405180910390fd5b6112d1826112cb6120ef565b83611d89565b3373ffffffffffffffffffffffffffffffffffffffff166108fc829081150290604051600060405180830381858888f19350505050158015611317573d6000803e3d6000fd5b505050565b61135b60405180807f4f574e45525f524f4c4500000000000000000000000000000000000000000000815250600a0190506040518091039020336119b0565b806113a157506113a060405180807f41444d494e5f524f4c4500000000000000000000000000000000000000000000815250600a0190506040518091039020336119b0565b5b611413576040517f08c379a00000000000000000000000000000000000000000000000000000000081526004018080602001828103825260168152602001807f43616c6c6572206973206e6f7420616e2061646d696e0000000000000000000081525060200191505060405180910390fd5b6000349050600073ffffffffffffffffffffffffffffffffffffffff168273ffffffffffffffffffffffffffffffffffffffff1614156114bb576040517f08c379a000000000000000000000000000000000000000000000000000000000815260040180806020018281038252601b8152602001807f457363726f77426173653a204163636f756e74206e6f7420736574000000000081525060200191505060405180910390fd5b60008111611531576040517f08c379a000000000000000000000000000000000000000000000000000000000815260040180806020018281038252601a8152602001807f457363726f77426173653a20416d6f756e74206e6f742073657400000000000081525060200191505060405180910390fd5b6115438261153d6120ef565b83611f3c565b5050565b60405180807f41444d494e5f524f4c4500000000000000000000000000000000000000000000815250600a019050604051809103902081565b6115bf60405180807f4f574e45525f524f4c4500000000000000000000000000000000000000000000815250600a0190506040518091039020336119b0565b80611605575061160460405180807f41444d494e5f524f4c4500000000000000000000000000000000000000000000815250600a0190506040518091039020336119b0565b5b611677576040517f08c379a00000000000000000000000000000000000000000000000000000000081526004018080602001828103825260168152602001807f43616c6c6572206973206e6f7420616e2061646d696e0000000000000000000081525060200191505060405180910390fd5b600073ffffffffffffffffffffffffffffffffffffffff168373ffffffffffffffffffffffffffffffffffffffff16141561171a576040517f08c379a000000000000000000000000000000000000000000000000000000000815260040180806020018281038252601b8152602001807f457363726f77426173653a204163636f756e74206e6f7420736574000000000081525060200191505060405180910390fd5b600073ffffffffffffffffffffffffffffffffffffffff168273ffffffffffffffffffffffffffffffffffffffff1614156117bd576040517f08c379a00000000000000000000000000000000000000000000000000000000081526004018080602001828103825260198152602001807f457363726f77426173653a20546f6b656e206e6f74207365740000000000000081525060200191505060405180910390fd5b60008111611833576040517f08c379a000000000000000000000000000000000000000000000000000000000815260040180806020018281038252601a8152602001807f457363726f77426173653a20416d6f756e74206e6f742073657400000000000081525060200191505060405180910390fd5b61183e838383611f3c565b61186b3330838573ffffffffffffffffffffffffffffffffffffffff166121b2909392919063ffffffff16565b505050565b6118af60405180807f4f574e45525f524f4c4500000000000000000000000000000000000000000000815250600a0190506040518091039020336119b0565b806118f557506118f460405180807f41444d494e5f524f4c4500000000000000000000000000000000000000000000815250600a0190506040518091039020336119b0565b5b611967576040517f08c379a00000000000000000000000000000000000000000000000000000000081526004018080602001828103825260168152602001807f43616c6c6572206973206e6f7420616e2061646d696e0000000000000000000081525060200191505060405180910390fd5b61197a83836119746120ef565b846108f2565b505050565b60006119a8826000808681526020019081526020016000206000016123ea90919063ffffffff16565b905092915050565b60006119d98260008086815260200190815260200160002060000161240490919063ffffffff16565b905092915050565b6000339050816119f18285611aef565b1015611a48576040517f08c379a0000000000000000000000000000000000000000000000000000000008152600401808060200182810382526027815260200180612ad36027913960400191505060405180910390fd5b611a53818484611d89565b611a7e81838573ffffffffffffffffffffffffffffffffffffffff166123329092919063ffffffff16565b8273ffffffffffffffffffffffffffffffffffffffff168173ffffffffffffffffffffffffffffffffffffffff167f8210728e7c071f615b840ee026032693858fbcd5e5359e67e438c890f59e5620846040518082815260200191505060405180910390a3505050565b6000801b81565b6000600160008473ffffffffffffffffffffffffffffffffffffffff1673ffffffffffffffffffffffffffffffffffffffff16815260200190815260200160002060008373ffffffffffffffffffffffffffffffffffffffff1673ffffffffffffffffffffffffffffffffffffffff16815260200190815260200160002054905092915050565b6000611b95600080848152602001908152602001600020600001612434565b9050919050565b60003390506000349050611bb882611bb26120ef565b83611f3c565b8173ffffffffffffffffffffffffffffffffffffffff167f2da466a7b24304f47e87fa2e1e5a81b9831ce54fec19055ce277ca2f39ba42c4826040518082815260200191505060405180910390a25050565b611c3060008084815260200190815260200160002060020154611c2b612117565b6119b0565b611c85576040517f08c379a0000000000000000000000000000000000000000000000000000000008152600401808060200182810382526030815260200180612b4d6030913960400191505060405180910390fd5b611c8f828261229f565b5050565b60405180807f4f574e45525f524f4c4500000000000000000000000000000000000000000000815250600a019050604051809103902081565b6000600160008373ffffffffffffffffffffffffffffffffffffffff1673ffffffffffffffffffffffffffffffffffffffff1681526020019081526020016000206000611d176120ef565b73ffffffffffffffffffffffffffffffffffffffff1673ffffffffffffffffffffffffffffffffffffffff168152602001908152602001600020549050919050565b6000611d81836000018373ffffffffffffffffffffffffffffffffffffffff1660001b612449565b905092915050565b611e1881600160008673ffffffffffffffffffffffffffffffffffffffff1673ffffffffffffffffffffffffffffffffffffffff16815260200190815260200160002060008573ffffffffffffffffffffffffffffffffffffffff1673ffffffffffffffffffffffffffffffffffffffff168152602001908152602001600020546124b990919063ffffffff16565b600160008573ffffffffffffffffffffffffffffffffffffffff1673ffffffffffffffffffffffffffffffffffffffff16815260200190815260200160002060008473ffffffffffffffffffffffffffffffffffffffff1673ffffffffffffffffffffffffffffffffffffffff168152602001908152602001600020819055507f6ac2cd906088d873624fa62ca95170d967629e7d964651df19a3aa2e49b44aa1838383604051808473ffffffffffffffffffffffffffffffffffffffff1673ffffffffffffffffffffffffffffffffffffffff1681526020018373ffffffffffffffffffffffffffffffffffffffff1673ffffffffffffffffffffffffffffffffffffffff168152602001828152602001935050505060405180910390a1505050565b611fcb81600160008673ffffffffffffffffffffffffffffffffffffffff1673ffffffffffffffffffffffffffffffffffffffff16815260200190815260200160002060008573ffffffffffffffffffffffffffffffffffffffff1673ffffffffffffffffffffffffffffffffffffffff1681526020019081526020016000205461250390919063ffffffff16565b600160008573ffffffffffffffffffffffffffffffffffffffff1673ffffffffffffffffffffffffffffffffffffffff16815260200190815260200160002060008473ffffffffffffffffffffffffffffffffffffffff1673ffffffffffffffffffffffffffffffffffffffff168152602001908152602001600020819055507f0d66f59c9991adc17dd3339490c5058d2d6fe20395e7b55ceb6ca8019a31667d838383604051808473ffffffffffffffffffffffffffffffffffffffff1673ffffffffffffffffffffffffffffffffffffffff1681526020018373ffffffffffffffffffffffffffffffffffffffff1673ffffffffffffffffffffffffffffffffffffffff168152602001828152602001935050505060405180910390a1505050565b60007fffffffffffffffffffffffffffffffffffffffffffffffffffffffffffffffff905090565b600033905090565b61214681600080858152602001908152602001600020600001611d5990919063ffffffff16565b156121ae57612153612117565b73ffffffffffffffffffffffffffffffffffffffff168173ffffffffffffffffffffffffffffffffffffffff16837f2f8788117e7eff1d82e926ec794901d17c78024a50270940304540a733656f0d60405160405180910390a45b5050565b612299846323b872dd60e01b858585604051602401808473ffffffffffffffffffffffffffffffffffffffff1673ffffffffffffffffffffffffffffffffffffffff1681526020018373ffffffffffffffffffffffffffffffffffffffff1673ffffffffffffffffffffffffffffffffffffffff1681526020018281526020019350505050604051602081830303815290604052907bffffffffffffffffffffffffffffffffffffffffffffffffffffffff19166020820180517bffffffffffffffffffffffffffffffffffffffffffffffffffffffff838183161783525050505061258b565b50505050565b6122c6816000808581526020019081526020016000206000016127d690919063ffffffff16565b1561232e576122d3612117565b73ffffffffffffffffffffffffffffffffffffffff168173ffffffffffffffffffffffffffffffffffffffff16837ff6391f5c32d9c69d2a47ea670b442974b53935d1edc7fd64eb21e047a839171b60405160405180910390a45b5050565b6123e58363a9059cbb60e01b8484604051602401808373ffffffffffffffffffffffffffffffffffffffff1673ffffffffffffffffffffffffffffffffffffffff16815260200182815260200192505050604051602081830303815290604052907bffffffffffffffffffffffffffffffffffffffffffffffffffffffff19166020820180517bffffffffffffffffffffffffffffffffffffffffffffffffffffffff838183161783525050505061258b565b505050565b60006123f98360000183612806565b60001c905092915050565b600061242c836000018373ffffffffffffffffffffffffffffffffffffffff1660001b612889565b905092915050565b6000612442826000016128ac565b9050919050565b60006124558383612889565b6124ae5782600001829080600181540180825580915050600190039060005260206000200160009091909190915055826000018054905083600101600084815260200190815260200160002081905550600190506124b3565b600090505b92915050565b60006124fb83836040518060400160405280601e81526020017f536166654d6174683a207375627472616374696f6e206f766572666c6f7700008152506128bd565b905092915050565b600080828401905083811015612581576040517f08c379a000000000000000000000000000000000000000000000000000000000815260040180806020018281038252601b8152602001807f536166654d6174683a206164646974696f6e206f766572666c6f77000000000081525060200191505060405180910390fd5b8091505092915050565b6125aa8273ffffffffffffffffffffffffffffffffffffffff1661297d565b61261c576040517f08c379a000000000000000000000000000000000000000000000000000000000815260040180806020018281038252601f8152602001807f5361666545524332303a2063616c6c20746f206e6f6e2d636f6e74726163740081525060200191505060405180910390fd5b600060608373ffffffffffffffffffffffffffffffffffffffff16836040518082805190602001908083835b6020831061266b5780518252602082019150602081019050602083039250612648565b6001836020036101000a0380198251168184511680821785525050505050509050019150506000604051808303816000865af19150503d80600081146126cd576040519150601f19603f3d011682016040523d82523d6000602084013e6126d2565b606091505b50915091508161274a576040517f08c379a00000000000000000000000000000000000000000000000000000000081526004018080602001828103825260208152602001807f5361666545524332303a206c6f772d6c6576656c2063616c6c206661696c656481525060200191505060405180910390fd5b6000815111156127d05780806020019051602081101561276957600080fd5b81019080805190602001909291905050506127cf576040517f08c379a000000000000000000000000000000000000000000000000000000000815260040180806020018281038252602a815260200180612ba3602a913960400191505060405180910390fd5b5b50505050565b60006127fe836000018373ffffffffffffffffffffffffffffffffffffffff1660001b6129c8565b905092915050565b600081836000018054905011612867576040517f08c379a0000000000000000000000000000000000000000000000000000000008152600401808060200182810382526022815260200180612ab16022913960400191505060405180910390fd5b82600001828154811061287657fe5b9060005260206000200154905092915050565b600080836001016000848152602001908152602001600020541415905092915050565b600081600001805490509050919050565b600083831115829061296a576040517f08c379a00000000000000000000000000000000000000000000000000000000081526004018080602001828103825283818151815260200191508051906020019080838360005b8381101561292f578082015181840152602081019050612914565b50505050905090810190601f16801561295c5780820380516001836020036101000a031916815260200191505b509250505060405180910390fd5b5060008385039050809150509392505050565b60008060007fc5d2460186f7233c927e7db2dcc703c0e500b653ca82273b7bfad8045d85a47060001b9050833f91508082141580156129bf57506000801b8214155b92505050919050565b60008083600101600084815260200190815260200160002054905060008114612aa45760006001820390506000600186600001805490500390506000866000018281548110612a1357fe5b9060005260206000200154905080876000018481548110612a3057fe5b9060005260206000200181905550600183018760010160008381526020019081526020016000208190555086600001805480612a6857fe5b60019003818190600052602060002001600090559055866001016000878152602001908152602001600020600090556001945050505050612aaa565b60009150505b9291505056fe456e756d657261626c655365743a20696e646578206f7574206f6620626f756e6473496e737472756d656e74457363726f773a20496e73756666696369656e742062616c616e63652e416363657373436f6e74726f6c3a2073656e646572206d75737420626520616e2061646d696e20746f206772616e74457363726f77426173653a20496e73756666696369656e74204554482042616c616e6365416363657373436f6e74726f6c3a2073656e646572206d75737420626520616e2061646d696e20746f207265766f6b65457363726f77426173653a20496e73756666696369656e7420546f6b656e2042616c616e63655361666545524332303a204552433230206f7065726174696f6e20646964206e6f742073756363656564416363657373436f6e74726f6c3a2063616e206f6e6c792072656e6f756e636520726f6c657320666f722073656c66a264697066735822122073beb06f052c6b8195d47b69d7175a1f233e5d4a7fc4dd18cf7b88e9b71b535264736f6c63430006080033",
  "immutableReferences": {},
  "source": "// SPDX-License-Identifier: Apache-2.0\npragma solidity 0.6.8;\n\nimport \"@openzeppelin/contracts/token/ERC20/IERC20.sol\";\nimport \"@openzeppelin/contracts/token/ERC20/SafeERC20.sol\";\n\nimport \"../lib/util/Constant.sol\";\nimport \"./EscrowBase.sol\";\nimport \"./IInstrumentEscrow.sol\";\n\n/**\n * @title Instrument Escrow that keeps assets that are not yet locked by issuances.\n */\ncontract InstrumentEscrow is EscrowBase, IInstrumentEscrow {\n\n    /**********************************************\n     * APIs to deposit and withdraw Ether\n     ***********************************************/\n\n    /**\n     * @dev Deposits ETHs into the instrument escrow\n     */\n    function deposit() public override payable {\n        address account = msg.sender;\n        uint256 amount = msg.value;\n        _increaseBalance(account, Constant.getEthAddress(), amount);\n\n        emit Deposited(account, amount);\n    }\n\n    /**\n     * @dev Withdraw Ethers from the instrument escrow\n     * @param amount The amount of Ethers to withdraw\n     */\n    function withdraw(uint256 amount) public override {\n        address payable account = msg.sender;\n        require(\n            getBalance(account) >= amount,\n            \"InstrumentEscrow: Insufficient balance.\"\n        );\n        _decreaseBalance(account, Constant.getEthAddress(), amount);\n\n        account.transfer(amount);\n\n        emit Withdrawn(account, amount);\n    }\n\n    /***********************************************\n     *  APIs to deposit and withdraw IERC20 token\n     **********************************************/\n\n    /**\n     * @dev Deposit IERC20 token to the instrument escrow.\n     * @param token The IERC20 token to deposit.\n     * @param amount The amount to deposit.\n     */\n    function depositToken(address token, uint256 amount) public override {\n        address account = msg.sender;\n        _increaseBalance(account, token, amount);\n\n        IERC20(token).safeTransferFrom(account, address(this), amount);\n\n        emit TokenDeposited(account, token, amount);\n    }\n\n    /**\n     * @dev Withdraw IERC20 token from the instrument escrow.\n     * @param token The IERC20 token to withdraw.\n     * @param amount The amount to withdraw.\n     */\n    function withdrawToken(address token, uint256 amount) public override {\n        address account = msg.sender;\n        require(\n            getTokenBalance(account, token) >= amount,\n            \"InstrumentEscrow: Insufficient balance.\"\n        );\n        _decreaseBalance(account, token, amount);\n\n        IERC20(token).safeTransfer(account, amount);\n\n        emit TokenWithdrawn(account, token, amount);\n    }\n}\n",
  "sourcePath": "/Users/shengdading/git/nuts-platform-v2.5/contracts/escrow/InstrumentEscrow.sol",
  "compiler": {
    "name": "solc",
    "version": "0.6.8+commit.0bbfe453.Emscripten.clang"
  },
  "schemaVersion": "3.1.0",
  "updatedAt": "2020-05-18T21:01:13.075Z",
  "devdoc": {
    "methods": {
      "deposit()": {
        "details": "Deposits ETHs into the instrument escrow"
      },
      "depositByAdmin(address)": {
        "details": "Deposits ETH from Escrow Admin into an account.",
        "params": {
          "account": "The account to deposit ETH."
        }
      },
      "depositToken(address,uint256)": {
        "details": "Deposit IERC20 token to the instrument escrow.",
        "params": {
          "amount": "The amount to deposit.",
          "token": "The IERC20 token to deposit."
        }
      },
      "depositTokenByAdmin(address,address,uint256)": {
        "details": "Deposits ERC20 tokens from Escrow Admin into an account. Note: The Escrow Admin must set the allowance before hand.",
        "params": {
          "account": "The account to deposit ERC20 tokens.",
          "amount": "The amount of ERC20 token to deposit.",
          "token": "The ERC20 token to deposit."
        }
      },
      "getBalance(address)": {
        "details": "Get the current ETH balance of an account in the escrow.",
        "params": {
          "account": "The account to check ETH balance."
        },
        "returns": {
          "_0": "Current ETH balance of the account."
        }
      },
      "getRoleAdmin(bytes32)": {
        "details": "Returns the admin role that controls `role`. See {grantRole} and {revokeRole}.     * To change a role's admin, use {_setRoleAdmin}."
      },
      "getRoleMember(bytes32,uint256)": {
        "details": "Returns one of the accounts that have `role`. `index` must be a value between 0 and {getRoleMemberCount}, non-inclusive.     * Role bearers are not sorted in any particular way, and their ordering may change at any point.     * WARNING: When using {getRoleMember} and {getRoleMemberCount}, make sure you perform all queries on the same block. See the following https://forum.openzeppelin.com/t/iterating-over-elements-on-enumerableset-in-openzeppelin-contracts/2296[forum post] for more information."
      },
      "getRoleMemberCount(bytes32)": {
        "details": "Returns the number of accounts that have `role`. Can be used together with {getRoleMember} to enumerate all bearers of a role."
      },
      "getTokenBalance(address,address)": {
        "details": "Get the balance of the requested IERC20 token in the escrow.",
        "params": {
          "account": "The address to check IERC20 balance.",
          "token": "The IERC20 token to check balance."
        },
        "returns": {
          "_0": "The balance of the account."
        }
      },
      "grantRole(bytes32,address)": {
        "details": "Grants `role` to `account`.     * If `account` had not been already granted `role`, emits a {RoleGranted} event.     * Requirements:     * - the caller must have ``role``'s admin role."
      },
      "hasRole(bytes32,address)": {
        "details": "Returns `true` if `account` has been granted `role`."
      },
      "renounceRole(bytes32,address)": {
        "details": "Revokes `role` from the calling account.     * Roles are often managed via {grantRole} and {revokeRole}: this function's purpose is to provide a mechanism for accounts to lose their privileges if they are compromised (such as when a trusted device is misplaced).     * If the calling account had been granted `role`, emits a {RoleRevoked} event.     * Requirements:     * - the caller must be `account`."
      },
      "revokeRole(bytes32,address)": {
        "details": "Revokes `role` from `account`.     * If `account` had been granted `role`, emits a {RoleRevoked} event.     * Requirements:     * - the caller must have ``role``'s admin role."
      },
      "transferByAdmin(address,address,uint256)": {
        "details": "Transfer ETH from one account to another in the Escrow.",
        "params": {
          "amount": "The amount of ETH to transfer.",
          "dest": "The target account that will own the ETH.",
          "source": "The account that owns the ETH."
        }
      },
      "transferTokenByAdmin(address,address,address,uint256)": {
        "details": "Transfer ERC20 token from one account to another in the Escrow.",
        "params": {
          "amount": "The amount of ERC20 token to transfer.",
          "dest": "The target account that will own the ERC20 token.",
          "source": "The account that owns the ERC20 token.",
          "token": "The ERC20 token address."
        }
      },
      "withdraw(uint256)": {
        "details": "Withdraw Ethers from the instrument escrow",
        "params": {
          "amount": "The amount of Ethers to withdraw"
        }
      },
      "withdrawByAdmin(address,uint256)": {
        "details": "Withdraws ETH from an account to Escrow Admin.",
        "params": {
          "account": "The account to withdraw ETH.",
          "amount": "The amount of ETH to withdraw."
        }
      },
      "withdrawToken(address,uint256)": {
        "details": "Withdraw IERC20 token from the instrument escrow.",
        "params": {
          "amount": "The amount to withdraw.",
          "token": "The IERC20 token to withdraw."
        }
      },
      "withdrawTokenByAdmin(address,address,uint256)": {
        "details": "Withdraws ERC20 token from an account to Escrow Admin. The transfer action is done inside this function.",
        "params": {
          "account": "The account to withdraw ERC20 token.",
          "amount": "The amount of ERC20 tokens to withdraw.",
          "token": "The ERC20 token to withdraw."
        }
      }
    },
    "title": "Instrument Escrow that keeps assets that are not yet locked by issuances."
  },
  "userdoc": {
    "methods": {}
  }
}