{
  "contractName": "IssuanceEscrow",
  "abi": [
    {
      "anonymous": false,
      "inputs": [
        {
          "indexed": false,
          "internalType": "address",
          "name": "account",
          "type": "address"
        },
        {
          "indexed": false,
          "internalType": "address",
          "name": "token",
          "type": "address"
        },
        {
          "indexed": false,
          "internalType": "uint256",
          "name": "amount",
          "type": "uint256"
        }
      ],
      "name": "BalanceDecreased",
      "type": "event"
    },
    {
      "anonymous": false,
      "inputs": [
        {
          "indexed": false,
          "internalType": "address",
          "name": "account",
          "type": "address"
        },
        {
          "indexed": false,
          "internalType": "address",
          "name": "token",
          "type": "address"
        },
        {
          "indexed": false,
          "internalType": "uint256",
          "name": "amount",
          "type": "uint256"
        }
      ],
      "name": "BalanceIncreased",
      "type": "event"
    },
    {
      "anonymous": false,
      "inputs": [
        {
          "indexed": true,
          "internalType": "bytes32",
          "name": "role",
          "type": "bytes32"
        },
        {
          "indexed": true,
          "internalType": "address",
          "name": "account",
          "type": "address"
        },
        {
          "indexed": true,
          "internalType": "address",
          "name": "sender",
          "type": "address"
        }
      ],
      "name": "RoleGranted",
      "type": "event"
    },
    {
      "anonymous": false,
      "inputs": [
        {
          "indexed": true,
          "internalType": "bytes32",
          "name": "role",
          "type": "bytes32"
        },
        {
          "indexed": true,
          "internalType": "address",
          "name": "account",
          "type": "address"
        },
        {
          "indexed": true,
          "internalType": "address",
          "name": "sender",
          "type": "address"
        }
      ],
      "name": "RoleRevoked",
      "type": "event"
    },
    {
      "inputs": [],
      "name": "ADMIN_ROLE",
      "outputs": [
        {
          "internalType": "bytes32",
          "name": "",
          "type": "bytes32"
        }
      ],
      "stateMutability": "view",
      "type": "function"
    },
    {
      "inputs": [],
      "name": "DEFAULT_ADMIN_ROLE",
      "outputs": [
        {
          "internalType": "bytes32",
          "name": "",
          "type": "bytes32"
        }
      ],
      "stateMutability": "view",
      "type": "function"
    },
    {
      "inputs": [],
      "name": "OWNER_ROLE",
      "outputs": [
        {
          "internalType": "bytes32",
          "name": "",
          "type": "bytes32"
        }
      ],
      "stateMutability": "view",
      "type": "function"
    },
    {
      "inputs": [
        {
          "internalType": "address",
          "name": "account",
          "type": "address"
        }
      ],
      "name": "depositByAdmin",
      "outputs": [],
      "stateMutability": "payable",
      "type": "function"
    },
    {
      "inputs": [
        {
          "internalType": "address",
          "name": "account",
          "type": "address"
        },
        {
          "internalType": "address",
          "name": "token",
          "type": "address"
        },
        {
          "internalType": "uint256",
          "name": "amount",
          "type": "uint256"
        }
      ],
      "name": "depositTokenByAdmin",
      "outputs": [],
      "stateMutability": "nonpayable",
      "type": "function"
    },
    {
      "inputs": [
        {
          "internalType": "address",
          "name": "account",
          "type": "address"
        }
      ],
      "name": "getBalance",
      "outputs": [
        {
          "internalType": "uint256",
          "name": "",
          "type": "uint256"
        }
      ],
      "stateMutability": "view",
      "type": "function"
    },
    {
      "inputs": [
        {
          "internalType": "bytes32",
          "name": "role",
          "type": "bytes32"
        }
      ],
      "name": "getRoleAdmin",
      "outputs": [
        {
          "internalType": "bytes32",
          "name": "",
          "type": "bytes32"
        }
      ],
      "stateMutability": "view",
      "type": "function"
    },
    {
      "inputs": [
        {
          "internalType": "bytes32",
          "name": "role",
          "type": "bytes32"
        },
        {
          "internalType": "uint256",
          "name": "index",
          "type": "uint256"
        }
      ],
      "name": "getRoleMember",
      "outputs": [
        {
          "internalType": "address",
          "name": "",
          "type": "address"
        }
      ],
      "stateMutability": "view",
      "type": "function"
    },
    {
      "inputs": [
        {
          "internalType": "bytes32",
          "name": "role",
          "type": "bytes32"
        }
      ],
      "name": "getRoleMemberCount",
      "outputs": [
        {
          "internalType": "uint256",
          "name": "",
          "type": "uint256"
        }
      ],
      "stateMutability": "view",
      "type": "function"
    },
    {
      "inputs": [
        {
          "internalType": "address",
          "name": "account",
          "type": "address"
        },
        {
          "internalType": "address",
          "name": "token",
          "type": "address"
        }
      ],
      "name": "getTokenBalance",
      "outputs": [
        {
          "internalType": "uint256",
          "name": "",
          "type": "uint256"
        }
      ],
      "stateMutability": "view",
      "type": "function"
    },
    {
      "inputs": [
        {
          "internalType": "bytes32",
          "name": "role",
          "type": "bytes32"
        },
        {
          "internalType": "address",
          "name": "account",
          "type": "address"
        }
      ],
      "name": "grantRole",
      "outputs": [],
      "stateMutability": "nonpayable",
      "type": "function"
    },
    {
      "inputs": [
        {
          "internalType": "bytes32",
          "name": "role",
          "type": "bytes32"
        },
        {
          "internalType": "address",
          "name": "account",
          "type": "address"
        }
      ],
      "name": "hasRole",
      "outputs": [
        {
          "internalType": "bool",
          "name": "",
          "type": "bool"
        }
      ],
      "stateMutability": "view",
      "type": "function"
    },
    {
      "inputs": [
        {
          "internalType": "bytes32",
          "name": "role",
          "type": "bytes32"
        },
        {
          "internalType": "address",
          "name": "account",
          "type": "address"
        }
      ],
      "name": "renounceRole",
      "outputs": [],
      "stateMutability": "nonpayable",
      "type": "function"
    },
    {
      "inputs": [
        {
          "internalType": "bytes32",
          "name": "role",
          "type": "bytes32"
        },
        {
          "internalType": "address",
          "name": "account",
          "type": "address"
        }
      ],
      "name": "revokeRole",
      "outputs": [],
      "stateMutability": "nonpayable",
      "type": "function"
    },
    {
      "inputs": [
        {
          "internalType": "address",
          "name": "source",
          "type": "address"
        },
        {
          "internalType": "address",
          "name": "dest",
          "type": "address"
        },
        {
          "internalType": "uint256",
          "name": "amount",
          "type": "uint256"
        }
      ],
      "name": "transferByAdmin",
      "outputs": [],
      "stateMutability": "nonpayable",
      "type": "function"
    },
    {
      "inputs": [
        {
          "internalType": "address",
          "name": "source",
          "type": "address"
        },
        {
          "internalType": "address",
          "name": "dest",
          "type": "address"
        },
        {
          "internalType": "address",
          "name": "token",
          "type": "address"
        },
        {
          "internalType": "uint256",
          "name": "amount",
          "type": "uint256"
        }
      ],
      "name": "transferTokenByAdmin",
      "outputs": [],
      "stateMutability": "nonpayable",
      "type": "function"
    },
    {
      "inputs": [
        {
          "internalType": "address",
          "name": "account",
          "type": "address"
        },
        {
          "internalType": "uint256",
          "name": "amount",
          "type": "uint256"
        }
      ],
      "name": "withdrawByAdmin",
      "outputs": [],
      "stateMutability": "nonpayable",
      "type": "function"
    },
    {
      "inputs": [
        {
          "internalType": "address",
          "name": "account",
          "type": "address"
        },
        {
          "internalType": "address",
          "name": "token",
          "type": "address"
        },
        {
          "internalType": "uint256",
          "name": "amount",
          "type": "uint256"
        }
      ],
      "name": "withdrawTokenByAdmin",
      "outputs": [],
      "stateMutability": "nonpayable",
      "type": "function"
    }
  ],
  "bytecode": "0x60806040523480156200001157600080fd5b506200005960405180807f4f574e45525f524f4c4500000000000000000000000000000000000000000000815250600a019050604051809103902033620000db60201b60201c565b620000d560405180807f41444d494e5f524f4c4500000000000000000000000000000000000000000000815250600a019050604051809103902060405180807f4f574e45525f524f4c4500000000000000000000000000000000000000000000815250600a0190506040518091039020620000f160201b60201c565b6200028f565b620000ed82826200010f60201b60201c565b5050565b80600080848152602001908152602001600020600201819055505050565b6200013d81600080858152602001908152602001600020600001620001b260201b620019051790919060201c565b15620001ae5762000153620001ea60201b60201c565b73ffffffffffffffffffffffffffffffffffffffff168173ffffffffffffffffffffffffffffffffffffffff16837f2f8788117e7eff1d82e926ec794901d17c78024a50270940304540a733656f0d60405160405180910390a45b5050565b6000620001e2836000018373ffffffffffffffffffffffffffffffffffffffff1660001b620001f260201b60201c565b905092915050565b600033905090565b60006200020683836200026c60201b60201c565b6200026157826000018290806001815401808255809150506001900390600052602060002001600090919091909150558260000180549050836001016000848152602001908152602001600020819055506001905062000266565b600090505b92915050565b600080836001016000848152602001908152602001600020541415905092915050565b6127b6806200029f6000396000f3fe6080604052600436106101095760003560e01c80638eb17dfe11610095578063c489744b11610064578063c489744b1461060c578063ca15c87314610691578063d547741f146106e0578063e58378bb1461073b578063f8b2cb4f1461076657610109565b80638eb17dfe1461046e5780639010d07c146104e957806391d148541461056e578063a217fddf146105e157610109565b80633d4aa9a9116100dc5780633d4aa9a9146102ae578063487c35801461032957806370d97c341461038457806375b238fc146103c8578063810c0af8146103f357610109565b8063233c33591461010e578063248a9ca3146101a95780632f2ff15d146101f857806336568abe14610253575b600080fd5b34801561011a57600080fd5b506101a76004803603608081101561013157600080fd5b81019080803573ffffffffffffffffffffffffffffffffffffffff169060200190929190803573ffffffffffffffffffffffffffffffffffffffff169060200190929190803573ffffffffffffffffffffffffffffffffffffffff169060200190929190803590602001909291905050506107cb565b005b3480156101b557600080fd5b506101e2600480360360208110156101cc57600080fd5b81019080803590602001909291905050506108de565b6040518082815260200191505060405180910390f35b34801561020457600080fd5b506102516004803603604081101561021b57600080fd5b8101908080359060200190929190803573ffffffffffffffffffffffffffffffffffffffff1690602001909291905050506108fd565b005b34801561025f57600080fd5b506102ac6004803603604081101561027657600080fd5b8101908080359060200190929190803573ffffffffffffffffffffffffffffffffffffffff169060200190929190505050610986565b005b3480156102ba57600080fd5b50610327600480360360608110156102d157600080fd5b81019080803573ffffffffffffffffffffffffffffffffffffffff169060200190929190803573ffffffffffffffffffffffffffffffffffffffff16906020019092919080359060200190929190505050610a1f565b005b34801561033557600080fd5b506103826004803603604081101561034c57600080fd5b81019080803573ffffffffffffffffffffffffffffffffffffffff16906020019092919080359060200190929190505050610d6f565b005b6103c66004803603602081101561039a57600080fd5b81019080803573ffffffffffffffffffffffffffffffffffffffff16906020019092919050505061103d565b005b3480156103d457600080fd5b506103dd611268565b6040518082815260200191505060405180910390f35b3480156103ff57600080fd5b5061046c6004803603606081101561041657600080fd5b81019080803573ffffffffffffffffffffffffffffffffffffffff169060200190929190803573ffffffffffffffffffffffffffffffffffffffff169060200190929190803590602001909291905050506112a1565b005b34801561047a57600080fd5b506104e76004803603606081101561049157600080fd5b81019080803573ffffffffffffffffffffffffffffffffffffffff169060200190929190803573ffffffffffffffffffffffffffffffffffffffff16906020019092919080359060200190929190505050611591565b005b3480156104f557600080fd5b5061052c6004803603604081101561050c57600080fd5b8101908080359060200190929190803590602001909291905050506116a0565b604051808273ffffffffffffffffffffffffffffffffffffffff1673ffffffffffffffffffffffffffffffffffffffff16815260200191505060405180910390f35b34801561057a57600080fd5b506105c76004803603604081101561059157600080fd5b8101908080359060200190929190803573ffffffffffffffffffffffffffffffffffffffff1690602001909291905050506116d1565b604051808215151515815260200191505060405180910390f35b3480156105ed57600080fd5b506105f6611702565b6040518082815260200191505060405180910390f35b34801561061857600080fd5b5061067b6004803603604081101561062f57600080fd5b81019080803573ffffffffffffffffffffffffffffffffffffffff169060200190929190803573ffffffffffffffffffffffffffffffffffffffff169060200190929190505050611709565b6040518082815260200191505060405180910390f35b34801561069d57600080fd5b506106ca600480360360208110156106b457600080fd5b8101908080359060200190929190505050611790565b6040518082815260200191505060405180910390f35b3480156106ec57600080fd5b506107396004803603604081101561070357600080fd5b8101908080359060200190929190803573ffffffffffffffffffffffffffffffffffffffff1690602001909291905050506117b6565b005b34801561074757600080fd5b5061075061183f565b6040518082815260200191505060405180910390f35b34801561077257600080fd5b506107b56004803603602081101561078957600080fd5b81019080803573ffffffffffffffffffffffffffffffffffffffff169060200190929190505050611878565b6040518082815260200191505060405180910390f35b61080a60405180807f4f574e45525f524f4c4500000000000000000000000000000000000000000000815250600a0190506040518091039020336116d1565b80610850575061084f60405180807f41444d494e5f524f4c4500000000000000000000000000000000000000000000815250600a0190506040518091039020336116d1565b5b6108c2576040517f08c379a00000000000000000000000000000000000000000000000000000000081526004018080602001828103825260168152602001807f43616c6c6572206973206e6f7420616e2061646d696e0000000000000000000081525060200191505060405180910390fd5b6108cd848383611935565b6108d8838383611ae8565b50505050565b6000806000838152602001908152602001600020600201549050919050565b6109236000808481526020019081526020016000206002015461091e611c9b565b6116d1565b610978576040517f08c379a000000000000000000000000000000000000000000000000000000000815260040180806020018281038252602f81526020018061267f602f913960400191505060405180910390fd5b6109828282611ca3565b5050565b61098e611c9b565b73ffffffffffffffffffffffffffffffffffffffff168173ffffffffffffffffffffffffffffffffffffffff1614610a11576040517f08c379a000000000000000000000000000000000000000000000000000000000815260040180806020018281038252602f815260200180612752602f913960400191505060405180910390fd5b610a1b8282611d36565b5050565b610a5e60405180807f4f574e45525f524f4c4500000000000000000000000000000000000000000000815250600a0190506040518091039020336116d1565b80610aa45750610aa360405180807f41444d494e5f524f4c4500000000000000000000000000000000000000000000815250600a0190506040518091039020336116d1565b5b610b16576040517f08c379a00000000000000000000000000000000000000000000000000000000081526004018080602001828103825260168152602001807f43616c6c6572206973206e6f7420616e2061646d696e0000000000000000000081525060200191505060405180910390fd5b600073ffffffffffffffffffffffffffffffffffffffff168373ffffffffffffffffffffffffffffffffffffffff161415610bb9576040517f08c379a000000000000000000000000000000000000000000000000000000000815260040180806020018281038252601b8152602001807f457363726f77426173653a204163636f756e74206e6f7420736574000000000081525060200191505060405180910390fd5b600073ffffffffffffffffffffffffffffffffffffffff168273ffffffffffffffffffffffffffffffffffffffff161415610c5c576040517f08c379a00000000000000000000000000000000000000000000000000000000081526004018080602001828103825260198152602001807f457363726f77426173653a20546f6b656e206e6f74207365740000000000000081525060200191505060405180910390fd5b60008111610cd2576040517f08c379a000000000000000000000000000000000000000000000000000000000815260040180806020018281038252601a8152602001807f457363726f77426173653a20416d6f756e74206e6f742073657400000000000081525060200191505060405180910390fd5b80610cdd8484611709565b1015610d34576040517f08c379a00000000000000000000000000000000000000000000000000000000081526004018080602001828103825260268152602001806127026026913960400191505060405180910390fd5b610d3f838383611935565b610d6a33828473ffffffffffffffffffffffffffffffffffffffff16611dc99092919063ffffffff16565b505050565b610dae60405180807f4f574e45525f524f4c4500000000000000000000000000000000000000000000815250600a0190506040518091039020336116d1565b80610df45750610df360405180807f41444d494e5f524f4c4500000000000000000000000000000000000000000000815250600a0190506040518091039020336116d1565b5b610e66576040517f08c379a00000000000000000000000000000000000000000000000000000000081526004018080602001828103825260168152602001807f43616c6c6572206973206e6f7420616e2061646d696e0000000000000000000081525060200191505060405180910390fd5b600073ffffffffffffffffffffffffffffffffffffffff168273ffffffffffffffffffffffffffffffffffffffff161415610f09576040517f08c379a000000000000000000000000000000000000000000000000000000000815260040180806020018281038252601b8152602001807f457363726f77426173653a204163636f756e74206e6f7420736574000000000081525060200191505060405180910390fd5b60008111610f7f576040517f08c379a000000000000000000000000000000000000000000000000000000000815260040180806020018281038252601a8152602001807f457363726f77426173653a20416d6f756e74206e6f742073657400000000000081525060200191505060405180910390fd5b80610f8983611878565b1015610fe0576040517f08c379a00000000000000000000000000000000000000000000000000000000081526004018080602001828103825260248152602001806126ae6024913960400191505060405180910390fd5b610ff282610fec611e81565b83611935565b3373ffffffffffffffffffffffffffffffffffffffff166108fc829081150290604051600060405180830381858888f19350505050158015611038573d6000803e3d6000fd5b505050565b61107c60405180807f4f574e45525f524f4c4500000000000000000000000000000000000000000000815250600a0190506040518091039020336116d1565b806110c257506110c160405180807f41444d494e5f524f4c4500000000000000000000000000000000000000000000815250600a0190506040518091039020336116d1565b5b611134576040517f08c379a00000000000000000000000000000000000000000000000000000000081526004018080602001828103825260168152602001807f43616c6c6572206973206e6f7420616e2061646d696e0000000000000000000081525060200191505060405180910390fd5b6000349050600073ffffffffffffffffffffffffffffffffffffffff168273ffffffffffffffffffffffffffffffffffffffff1614156111dc576040517f08c379a000000000000000000000000000000000000000000000000000000000815260040180806020018281038252601b8152602001807f457363726f77426173653a204163636f756e74206e6f7420736574000000000081525060200191505060405180910390fd5b60008111611252576040517f08c379a000000000000000000000000000000000000000000000000000000000815260040180806020018281038252601a8152602001807f457363726f77426173653a20416d6f756e74206e6f742073657400000000000081525060200191505060405180910390fd5b6112648261125e611e81565b83611ae8565b5050565b60405180807f41444d494e5f524f4c4500000000000000000000000000000000000000000000815250600a019050604051809103902081565b6112e060405180807f4f574e45525f524f4c4500000000000000000000000000000000000000000000815250600a0190506040518091039020336116d1565b80611326575061132560405180807f41444d494e5f524f4c4500000000000000000000000000000000000000000000815250600a0190506040518091039020336116d1565b5b611398576040517f08c379a00000000000000000000000000000000000000000000000000000000081526004018080602001828103825260168152602001807f43616c6c6572206973206e6f7420616e2061646d696e0000000000000000000081525060200191505060405180910390fd5b600073ffffffffffffffffffffffffffffffffffffffff168373ffffffffffffffffffffffffffffffffffffffff16141561143b576040517f08c379a000000000000000000000000000000000000000000000000000000000815260040180806020018281038252601b8152602001807f457363726f77426173653a204163636f756e74206e6f7420736574000000000081525060200191505060405180910390fd5b600073ffffffffffffffffffffffffffffffffffffffff168273ffffffffffffffffffffffffffffffffffffffff1614156114de576040517f08c379a00000000000000000000000000000000000000000000000000000000081526004018080602001828103825260198152602001807f457363726f77426173653a20546f6b656e206e6f74207365740000000000000081525060200191505060405180910390fd5b60008111611554576040517f08c379a000000000000000000000000000000000000000000000000000000000815260040180806020018281038252601a8152602001807f457363726f77426173653a20416d6f756e74206e6f742073657400000000000081525060200191505060405180910390fd5b61155f838383611ae8565b61158c3330838573ffffffffffffffffffffffffffffffffffffffff16611ea9909392919063ffffffff16565b505050565b6115d060405180807f4f574e45525f524f4c4500000000000000000000000000000000000000000000815250600a0190506040518091039020336116d1565b80611616575061161560405180807f41444d494e5f524f4c4500000000000000000000000000000000000000000000815250600a0190506040518091039020336116d1565b5b611688576040517f08c379a00000000000000000000000000000000000000000000000000000000081526004018080602001828103825260168152602001807f43616c6c6572206973206e6f7420616e2061646d696e0000000000000000000081525060200191505060405180910390fd5b61169b8383611695611e81565b846107cb565b505050565b60006116c982600080868152602001908152602001600020600001611f9690919063ffffffff16565b905092915050565b60006116fa82600080868152602001908152602001600020600001611fb090919063ffffffff16565b905092915050565b6000801b81565b6000600160008473ffffffffffffffffffffffffffffffffffffffff1673ffffffffffffffffffffffffffffffffffffffff16815260200190815260200160002060008373ffffffffffffffffffffffffffffffffffffffff1673ffffffffffffffffffffffffffffffffffffffff16815260200190815260200160002054905092915050565b60006117af600080848152602001908152602001600020600001611fe0565b9050919050565b6117dc600080848152602001908152602001600020600201546117d7611c9b565b6116d1565b611831576040517f08c379a00000000000000000000000000000000000000000000000000000000081526004018080602001828103825260308152602001806126d26030913960400191505060405180910390fd5b61183b8282611d36565b5050565b60405180807f4f574e45525f524f4c4500000000000000000000000000000000000000000000815250600a019050604051809103902081565b6000600160008373ffffffffffffffffffffffffffffffffffffffff1673ffffffffffffffffffffffffffffffffffffffff16815260200190815260200160002060006118c3611e81565b73ffffffffffffffffffffffffffffffffffffffff1673ffffffffffffffffffffffffffffffffffffffff168152602001908152602001600020549050919050565b600061192d836000018373ffffffffffffffffffffffffffffffffffffffff1660001b611ff5565b905092915050565b6119c481600160008673ffffffffffffffffffffffffffffffffffffffff1673ffffffffffffffffffffffffffffffffffffffff16815260200190815260200160002060008573ffffffffffffffffffffffffffffffffffffffff1673ffffffffffffffffffffffffffffffffffffffff1681526020019081526020016000205461206590919063ffffffff16565b600160008573ffffffffffffffffffffffffffffffffffffffff1673ffffffffffffffffffffffffffffffffffffffff16815260200190815260200160002060008473ffffffffffffffffffffffffffffffffffffffff1673ffffffffffffffffffffffffffffffffffffffff168152602001908152602001600020819055507f6ac2cd906088d873624fa62ca95170d967629e7d964651df19a3aa2e49b44aa1838383604051808473ffffffffffffffffffffffffffffffffffffffff1673ffffffffffffffffffffffffffffffffffffffff1681526020018373ffffffffffffffffffffffffffffffffffffffff1673ffffffffffffffffffffffffffffffffffffffff168152602001828152602001935050505060405180910390a1505050565b611b7781600160008673ffffffffffffffffffffffffffffffffffffffff1673ffffffffffffffffffffffffffffffffffffffff16815260200190815260200160002060008573ffffffffffffffffffffffffffffffffffffffff1673ffffffffffffffffffffffffffffffffffffffff168152602001908152602001600020546120af90919063ffffffff16565b600160008573ffffffffffffffffffffffffffffffffffffffff1673ffffffffffffffffffffffffffffffffffffffff16815260200190815260200160002060008473ffffffffffffffffffffffffffffffffffffffff1673ffffffffffffffffffffffffffffffffffffffff168152602001908152602001600020819055507f0d66f59c9991adc17dd3339490c5058d2d6fe20395e7b55ceb6ca8019a31667d838383604051808473ffffffffffffffffffffffffffffffffffffffff1673ffffffffffffffffffffffffffffffffffffffff1681526020018373ffffffffffffffffffffffffffffffffffffffff1673ffffffffffffffffffffffffffffffffffffffff168152602001828152602001935050505060405180910390a1505050565b600033905090565b611cca8160008085815260200190815260200160002060000161190590919063ffffffff16565b15611d3257611cd7611c9b565b73ffffffffffffffffffffffffffffffffffffffff168173ffffffffffffffffffffffffffffffffffffffff16837f2f8788117e7eff1d82e926ec794901d17c78024a50270940304540a733656f0d60405160405180910390a45b5050565b611d5d8160008085815260200190815260200160002060000161213790919063ffffffff16565b15611dc557611d6a611c9b565b73ffffffffffffffffffffffffffffffffffffffff168173ffffffffffffffffffffffffffffffffffffffff16837ff6391f5c32d9c69d2a47ea670b442974b53935d1edc7fd64eb21e047a839171b60405160405180910390a45b5050565b611e7c8363a9059cbb60e01b8484604051602401808373ffffffffffffffffffffffffffffffffffffffff1673ffffffffffffffffffffffffffffffffffffffff16815260200182815260200192505050604051602081830303815290604052907bffffffffffffffffffffffffffffffffffffffffffffffffffffffff19166020820180517bffffffffffffffffffffffffffffffffffffffffffffffffffffffff8381831617835250505050612167565b505050565b60007fffffffffffffffffffffffffffffffffffffffffffffffffffffffffffffffff905090565b611f90846323b872dd60e01b858585604051602401808473ffffffffffffffffffffffffffffffffffffffff1673ffffffffffffffffffffffffffffffffffffffff1681526020018373ffffffffffffffffffffffffffffffffffffffff1673ffffffffffffffffffffffffffffffffffffffff1681526020018281526020019350505050604051602081830303815290604052907bffffffffffffffffffffffffffffffffffffffffffffffffffffffff19166020820180517bffffffffffffffffffffffffffffffffffffffffffffffffffffffff8381831617835250505050612167565b50505050565b6000611fa583600001836123b2565b60001c905092915050565b6000611fd8836000018373ffffffffffffffffffffffffffffffffffffffff1660001b612435565b905092915050565b6000611fee82600001612458565b9050919050565b60006120018383612435565b61205a57826000018290806001815401808255809150506001900390600052602060002001600090919091909150558260000180549050836001016000848152602001908152602001600020819055506001905061205f565b600090505b92915050565b60006120a783836040518060400160405280601e81526020017f536166654d6174683a207375627472616374696f6e206f766572666c6f770000815250612469565b905092915050565b60008082840190508381101561212d576040517f08c379a000000000000000000000000000000000000000000000000000000000815260040180806020018281038252601b8152602001807f536166654d6174683a206164646974696f6e206f766572666c6f77000000000081525060200191505060405180910390fd5b8091505092915050565b600061215f836000018373ffffffffffffffffffffffffffffffffffffffff1660001b612529565b905092915050565b6121868273ffffffffffffffffffffffffffffffffffffffff16612611565b6121f8576040517f08c379a000000000000000000000000000000000000000000000000000000000815260040180806020018281038252601f8152602001807f5361666545524332303a2063616c6c20746f206e6f6e2d636f6e74726163740081525060200191505060405180910390fd5b600060608373ffffffffffffffffffffffffffffffffffffffff16836040518082805190602001908083835b602083106122475780518252602082019150602081019050602083039250612224565b6001836020036101000a0380198251168184511680821785525050505050509050019150506000604051808303816000865af19150503d80600081146122a9576040519150601f19603f3d011682016040523d82523d6000602084013e6122ae565b606091505b509150915081612326576040517f08c379a00000000000000000000000000000000000000000000000000000000081526004018080602001828103825260208152602001807f5361666545524332303a206c6f772d6c6576656c2063616c6c206661696c656481525060200191505060405180910390fd5b6000815111156123ac5780806020019051602081101561234557600080fd5b81019080805190602001909291905050506123ab576040517f08c379a000000000000000000000000000000000000000000000000000000000815260040180806020018281038252602a815260200180612728602a913960400191505060405180910390fd5b5b50505050565b600081836000018054905011612413576040517f08c379a000000000000000000000000000000000000000000000000000000000815260040180806020018281038252602281526020018061265d6022913960400191505060405180910390fd5b82600001828154811061242257fe5b9060005260206000200154905092915050565b600080836001016000848152602001908152602001600020541415905092915050565b600081600001805490509050919050565b6000838311158290612516576040517f08c379a00000000000000000000000000000000000000000000000000000000081526004018080602001828103825283818151815260200191508051906020019080838360005b838110156124db5780820151818401526020810190506124c0565b50505050905090810190601f1680156125085780820380516001836020036101000a031916815260200191505b509250505060405180910390fd5b5060008385039050809150509392505050565b60008083600101600084815260200190815260200160002054905060008114612605576000600182039050600060018660000180549050039050600086600001828154811061257457fe5b906000526020600020015490508087600001848154811061259157fe5b90600052602060002001819055506001830187600101600083815260200190815260200160002081905550866000018054806125c957fe5b6001900381819060005260206000200160009055905586600101600087815260200190815260200160002060009055600194505050505061260b565b60009150505b92915050565b60008060007fc5d2460186f7233c927e7db2dcc703c0e500b653ca82273b7bfad8045d85a47060001b9050833f915080821415801561265357506000801b8214155b9250505091905056fe456e756d657261626c655365743a20696e646578206f7574206f6620626f756e6473416363657373436f6e74726f6c3a2073656e646572206d75737420626520616e2061646d696e20746f206772616e74457363726f77426173653a20496e73756666696369656e74204554482042616c616e6365416363657373436f6e74726f6c3a2073656e646572206d75737420626520616e2061646d696e20746f207265766f6b65457363726f77426173653a20496e73756666696369656e7420546f6b656e2042616c616e63655361666545524332303a204552433230206f7065726174696f6e20646964206e6f742073756363656564416363657373436f6e74726f6c3a2063616e206f6e6c792072656e6f756e636520726f6c657320666f722073656c66a264697066735822122023b518c0542f2e9c0848c6492d6d451f53a3437d567bf1a8d5876939664382e364736f6c63430006080033",
  "immutableReferences": {},
  "source": "// SPDX-License-Identifier: Apache-2.0\npragma solidity 0.6.8;\n\nimport \"./EscrowBase.sol\";\nimport \"./IIssuanceEscrow.sol\";\n\n/**\n * @title Issuance Escrow that keeps assets that are locked by issuance.\n */\ncontract IssuanceEscrow is EscrowBase, IIssuanceEscrow {\n}\n",
  "sourcePath": "/Users/shengdading/git/nuts-platform-v2.5/contracts/escrow/IssuanceEscrow.sol",
  "compiler": {
    "name": "solc",
    "version": "0.6.8+commit.0bbfe453.Emscripten.clang"
  },
  "schemaVersion": "3.1.0",
  "updatedAt": "2020-05-18T21:01:13.081Z",
  "devdoc": {
    "methods": {
      "depositByAdmin(address)": {
        "details": "Deposits ETH from Escrow Admin into an account.",
        "params": {
          "account": "The account to deposit ETH."
        }
      },
      "depositTokenByAdmin(address,address,uint256)": {
        "details": "Deposits ERC20 tokens from Escrow Admin into an account. Note: The Escrow Admin must set the allowance before hand.",
        "params": {
          "account": "The account to deposit ERC20 tokens.",
          "amount": "The amount of ERC20 token to deposit.",
          "token": "The ERC20 token to deposit."
        }
      },
      "getBalance(address)": {
        "details": "Get the current ETH balance of an account in the escrow.",
        "params": {
          "account": "The account to check ETH balance."
        },
        "returns": {
          "_0": "Current ETH balance of the account."
        }
      },
      "getRoleAdmin(bytes32)": {
        "details": "Returns the admin role that controls `role`. See {grantRole} and {revokeRole}.     * To change a role's admin, use {_setRoleAdmin}."
      },
      "getRoleMember(bytes32,uint256)": {
        "details": "Returns one of the accounts that have `role`. `index` must be a value between 0 and {getRoleMemberCount}, non-inclusive.     * Role bearers are not sorted in any particular way, and their ordering may change at any point.     * WARNING: When using {getRoleMember} and {getRoleMemberCount}, make sure you perform all queries on the same block. See the following https://forum.openzeppelin.com/t/iterating-over-elements-on-enumerableset-in-openzeppelin-contracts/2296[forum post] for more information."
      },
      "getRoleMemberCount(bytes32)": {
        "details": "Returns the number of accounts that have `role`. Can be used together with {getRoleMember} to enumerate all bearers of a role."
      },
      "getTokenBalance(address,address)": {
        "details": "Get the balance of the requested IERC20 token in the escrow.",
        "params": {
          "account": "The address to check IERC20 balance.",
          "token": "The IERC20 token to check balance."
        },
        "returns": {
          "_0": "The balance of the account."
        }
      },
      "grantRole(bytes32,address)": {
        "details": "Grants `role` to `account`.     * If `account` had not been already granted `role`, emits a {RoleGranted} event.     * Requirements:     * - the caller must have ``role``'s admin role."
      },
      "hasRole(bytes32,address)": {
        "details": "Returns `true` if `account` has been granted `role`."
      },
      "renounceRole(bytes32,address)": {
        "details": "Revokes `role` from the calling account.     * Roles are often managed via {grantRole} and {revokeRole}: this function's purpose is to provide a mechanism for accounts to lose their privileges if they are compromised (such as when a trusted device is misplaced).     * If the calling account had been granted `role`, emits a {RoleRevoked} event.     * Requirements:     * - the caller must be `account`."
      },
      "revokeRole(bytes32,address)": {
        "details": "Revokes `role` from `account`.     * If `account` had been granted `role`, emits a {RoleRevoked} event.     * Requirements:     * - the caller must have ``role``'s admin role."
      },
      "transferByAdmin(address,address,uint256)": {
        "details": "Transfer ETH from one account to another in the Escrow.",
        "params": {
          "amount": "The amount of ETH to transfer.",
          "dest": "The target account that will own the ETH.",
          "source": "The account that owns the ETH."
        }
      },
      "transferTokenByAdmin(address,address,address,uint256)": {
        "details": "Transfer ERC20 token from one account to another in the Escrow.",
        "params": {
          "amount": "The amount of ERC20 token to transfer.",
          "dest": "The target account that will own the ERC20 token.",
          "source": "The account that owns the ERC20 token.",
          "token": "The ERC20 token address."
        }
      },
      "withdrawByAdmin(address,uint256)": {
        "details": "Withdraws ETH from an account to Escrow Admin.",
        "params": {
          "account": "The account to withdraw ETH.",
          "amount": "The amount of ETH to withdraw."
        }
      },
      "withdrawTokenByAdmin(address,address,uint256)": {
        "details": "Withdraws ERC20 token from an account to Escrow Admin. The transfer action is done inside this function.",
        "params": {
          "account": "The account to withdraw ERC20 token.",
          "amount": "The amount of ERC20 tokens to withdraw.",
          "token": "The ERC20 token to withdraw."
        }
      }
    },
    "title": "Issuance Escrow that keeps assets that are locked by issuance."
  },
  "userdoc": {
    "methods": {}
  }
}